{
  "contractName": "DVideo",
  "abi": [
    {
      "inputs": [],
      "payable": false,
      "stateMutability": "nonpayable",
      "type": "constructor"
    },
    {
      "anonymous": false,
      "inputs": [
        {
          "indexed": false,
          "internalType": "uint256",
          "name": "id",
          "type": "uint256"
        },
        {
          "indexed": false,
          "internalType": "string",
          "name": "text",
          "type": "string"
        },
        {
          "indexed": false,
          "internalType": "uint256",
          "name": "commentsCount",
          "type": "uint256"
        },
        {
          "indexed": false,
          "internalType": "address",
          "name": "poster",
          "type": "address"
        }
      ],
      "name": "CommentPosted",
      "type": "event"
    },
    {
      "anonymous": false,
      "inputs": [
        {
          "indexed": false,
          "internalType": "uint256",
          "name": "id",
          "type": "uint256"
        },
        {
          "indexed": false,
          "internalType": "string",
          "name": "title",
          "type": "string"
        },
        {
          "indexed": false,
          "internalType": "uint256",
          "name": "rateTotal",
          "type": "uint256"
        },
        {
          "indexed": false,
          "internalType": "uint256",
          "name": "rateNumber",
          "type": "uint256"
        }
      ],
      "name": "VideoRateUpdated",
      "type": "event"
    },
    {
      "anonymous": false,
      "inputs": [
        {
          "indexed": false,
          "internalType": "uint256",
          "name": "id",
          "type": "uint256"
        },
        {
          "indexed": false,
          "internalType": "string",
          "name": "hash",
          "type": "string"
        },
        {
          "indexed": false,
          "internalType": "string",
          "name": "title",
          "type": "string"
        },
        {
          "indexed": false,
          "internalType": "uint256",
          "name": "videoCount",
          "type": "uint256"
        },
        {
          "indexed": false,
          "internalType": "address",
          "name": "author",
          "type": "address"
        },
        {
          "indexed": false,
          "internalType": "uint256",
          "name": "rateTotal",
          "type": "uint256"
        },
        {
          "indexed": false,
          "internalType": "uint256",
          "name": "rateNumber",
          "type": "uint256"
        },
        {
          "indexed": false,
          "internalType": "uint256",
          "name": "commentsCount",
          "type": "uint256"
        }
      ],
      "name": "VideoUploaded",
      "type": "event"
    },
    {
      "constant": true,
      "inputs": [],
      "name": "name",
      "outputs": [
        {
          "internalType": "string",
          "name": "",
          "type": "string"
        }
      ],
      "payable": false,
      "stateMutability": "view",
      "type": "function"
    },
    {
      "constant": true,
      "inputs": [],
      "name": "videoCount",
      "outputs": [
        {
          "internalType": "uint256",
          "name": "",
          "type": "uint256"
        }
      ],
      "payable": false,
      "stateMutability": "view",
      "type": "function"
    },
    {
      "constant": true,
      "inputs": [
        {
          "internalType": "uint256",
          "name": "",
          "type": "uint256"
        }
      ],
      "name": "videos",
      "outputs": [
        {
          "internalType": "uint256",
          "name": "id",
          "type": "uint256"
        },
        {
          "internalType": "string",
          "name": "hash",
          "type": "string"
        },
        {
          "internalType": "string",
          "name": "title",
          "type": "string"
        },
        {
          "internalType": "address",
          "name": "author",
          "type": "address"
        },
        {
          "internalType": "uint256",
          "name": "rateTotal",
          "type": "uint256"
        },
        {
          "internalType": "uint256",
          "name": "rateNumber",
          "type": "uint256"
        },
        {
          "internalType": "uint256",
          "name": "commentsCount",
          "type": "uint256"
        }
      ],
      "payable": false,
      "stateMutability": "view",
      "type": "function"
    },
    {
      "constant": false,
      "inputs": [
        {
          "internalType": "string",
          "name": "_videoHash",
          "type": "string"
        },
        {
          "internalType": "string",
          "name": "_title",
          "type": "string"
        }
      ],
      "name": "uploadVideo",
      "outputs": [],
      "payable": false,
      "stateMutability": "nonpayable",
      "type": "function"
    },
    {
      "constant": false,
      "inputs": [
        {
          "internalType": "uint256",
          "name": "_id",
          "type": "uint256"
        },
        {
          "internalType": "uint256",
          "name": "_rateTotal",
          "type": "uint256"
        },
        {
          "internalType": "uint256",
          "name": "_rateNumber",
          "type": "uint256"
        },
        {
          "internalType": "string",
          "name": "_title",
          "type": "string"
        }
      ],
      "name": "updateRate",
      "outputs": [],
      "payable": false,
      "stateMutability": "nonpayable",
      "type": "function"
    },
    {
      "constant": false,
      "inputs": [
        {
          "internalType": "uint256",
          "name": "_id",
          "type": "uint256"
        },
        {
          "internalType": "string",
          "name": "_text",
          "type": "string"
        }
      ],
      "name": "postComment",
      "outputs": [],
      "payable": false,
      "stateMutability": "nonpayable",
      "type": "function"
    },
    {
      "constant": false,
      "inputs": [
        {
          "internalType": "uint256",
          "name": "_videoId",
          "type": "uint256"
        },
        {
          "internalType": "uint256",
          "name": "_commentId",
          "type": "uint256"
        }
      ],
      "name": "getComment",
      "outputs": [
        {
          "internalType": "string",
          "name": "text",
          "type": "string"
        },
        {
          "internalType": "address",
          "name": "poster",
          "type": "address"
        }
      ],
      "payable": false,
      "stateMutability": "nonpayable",
      "type": "function"
    }
  ],
  "bytecode": "0x6080604052600080556040518060400160405280600681526020017f44566964656f000000000000000000000000000000000000000000000000000081525060019080519060200190620000559291906200006a565b503480156200006357600080fd5b5062000119565b828054600181600116156101000203166002900490600052602060002090601f016020900481019282601f10620000ad57805160ff1916838001178555620000de565b82800160010185558215620000de579182015b82811115620000dd578251825591602001919060010190620000c0565b5b509050620000ed9190620000f1565b5090565b6200011691905b8082111562000112576000816000905550600101620000f8565b5090565b90565b6111e480620001296000396000f3fe608060405234801561001057600080fd5b506004361061007d5760003560e01c80638a5447c51161005b5780638a5447c5146102c2578063c61b5f4c14610414578063ce010ffc14610432578063e6821bf5146104f75761007d565b806306fdde031461008257806348892753146101055780636810b6af146101e9575b600080fd5b61008a610659565b6040518080602001828103825283818151815260200191508051906020019080838360005b838110156100ca5780820151818401526020810190506100af565b50505050905090810190601f1680156100f75780820380516001836020036101000a031916815260200191505b509250505060405180910390f35b61013b6004803603604081101561011b57600080fd5b8101908080359060200190929190803590602001909291905050506106f7565b60405180806020018373ffffffffffffffffffffffffffffffffffffffff1673ffffffffffffffffffffffffffffffffffffffff168152602001828103825284818151815260200191508051906020019080838360005b838110156101ad578082015181840152602081019050610192565b50505050905090810190601f1680156101da5780820380516001836020036101000a031916815260200191505b50935050505060405180910390f35b6102c0600480360360808110156101ff57600080fd5b810190808035906020019092919080359060200190929190803590602001909291908035906020019064010000000081111561023a57600080fd5b82018360208201111561024c57600080fd5b8035906020019184600183028401116401000000008311171561026e57600080fd5b91908080601f016020809104026020016040519081016040528093929190818152602001838380828437600081840152601f19601f820116905080830192505050505050509192919290505050610824565b005b610412600480360360408110156102d857600080fd5b81019080803590602001906401000000008111156102f557600080fd5b82018360208201111561030757600080fd5b8035906020019184600183028401116401000000008311171561032957600080fd5b91908080601f016020809104026020016040519081016040528093929190818152602001838380828437600081840152601f19601f8201169050808301925050505050505091929192908035906020019064010000000081111561038c57600080fd5b82018360208201111561039e57600080fd5b803590602001918460018302840111640100000000831117156103c057600080fd5b91908080601f016020809104026020016040519081016040528093929190818152602001838380828437600081840152601f19601f820116905080830192505050505050509192919290505050610978565b005b61041c610c71565b6040518082815260200191505060405180910390f35b6104f56004803603604081101561044857600080fd5b81019080803590602001909291908035906020019064010000000081111561046f57600080fd5b82018360208201111561048157600080fd5b803590602001918460018302840111640100000000831117156104a357600080fd5b91908080601f016020809104026020016040519081016040528093929190818152602001838380828437600081840152601f19601f820116905080830192505050505050509192919290505050610c77565b005b6105236004803603602081101561050d57600080fd5b8101908080359060200190929190505050610ef8565b6040518088815260200180602001806020018773ffffffffffffffffffffffffffffffffffffffff1673ffffffffffffffffffffffffffffffffffffffff168152602001868152602001858152602001848152602001838103835289818151815260200191508051906020019080838360005b838110156105b1578082015181840152602081019050610596565b50505050905090810190601f1680156105de5780820380516001836020036101000a031916815260200191505b50838103825288818151815260200191508051906020019080838360005b838110156106175780820151818401526020810190506105fc565b50505050905090810190601f1680156106445780820380516001836020036101000a031916815260200191505b50995050505050505050505060405180910390f35b60018054600181600116156101000203166002900480601f0160208091040260200160405190810160405280929190818152602001828054600181600116156101000203166002900480156106ef5780601f106106c4576101008083540402835291602001916106ef565b820191906000526020600020905b8154815290600101906020018083116106d257829003601f168201915b505050505081565b606060008083101561070857600080fd5b60026000858152602001908152602001600020600701600084815260200190815260200160002060010160026000868152602001908152602001600020600701600085815260200190815260200160002060020160009054906101000a900473ffffffffffffffffffffffffffffffffffffffff16818054600181600116156101000203166002900480601f0160208091040260200160405190810160405280929190818152602001828054600181600116156101000203166002900480156108125780601f106107e757610100808354040283529160200191610812565b820191906000526020600020905b8154815290600101906020018083116107f557829003601f168201915b50505050509150915091509250929050565b600084101561083257600080fd5b600083101561084057600080fd5b600082101561084e57600080fd5b600073ffffffffffffffffffffffffffffffffffffffff163373ffffffffffffffffffffffffffffffffffffffff16141561088857600080fd5b8260026000868152602001908152602001600020600401819055508160026000868152602001908152602001600020600501819055507ff78d7279b8348a4aa2c0b4b344ab3c1ab111ad7abdb4f013da75cb4fcba2d7d6848285856040518085815260200180602001848152602001838152602001828103825285818151815260200191508051906020019080838360005b8381101561093557808201518184015260208101905061091a565b50505050905090810190601f1680156109625780820380516001836020036101000a031916815260200191505b509550505050505060405180910390a150505050565b600082511161098657600080fd5b600081511161099457600080fd5b600073ffffffffffffffffffffffffffffffffffffffff163373ffffffffffffffffffffffffffffffffffffffff1614156109ce57600080fd5b6000546002600080548152602001908152602001600020600001819055508160026000805481526020019081526020016000206001019080519060200190610a1792919061108a565b508060026000805481526020019081526020016000206002019080519060200190610a4392919061108a565b5033600260008054815260200190815260200160002060030160006101000a81548173ffffffffffffffffffffffffffffffffffffffff021916908373ffffffffffffffffffffffffffffffffffffffff16021790555060006002600080548152602001908152602001600020600401819055506000600260008054815260200190815260200160002060050181905550600060026000805481526020019081526020016000206006018190555060008081548092919060010191905055507f6ffe604758fe02360cc0aec6087f99b3ed9653aee7eeea8eb8f4c8b9c7c1562560005483836000543360008060006040518089815260200180602001806020018881526020018773ffffffffffffffffffffffffffffffffffffffff1673ffffffffffffffffffffffffffffffffffffffff16815260200186815260200185815260200184815260200183810383528a818151815260200191508051906020019080838360005b83811015610bc5578082015181840152602081019050610baa565b50505050905090810190601f168015610bf25780820380516001836020036101000a031916815260200191505b50838103825289818151815260200191508051906020019080838360005b83811015610c2b578082015181840152602081019050610c10565b50505050905090810190601f168015610c585780820380516001836020036101000a031916815260200191505b509a505050505050505050505060405180910390a15050565b60005481565b6000821015610c8557600080fd5b6000815111610c9357600080fd5b600073ffffffffffffffffffffffffffffffffffffffff163373ffffffffffffffffffffffffffffffffffffffff161415610ccd57600080fd5b6040518060600160405280600260008581526020019081526020016000206006015481526020018281526020013373ffffffffffffffffffffffffffffffffffffffff1681525060026000848152602001908152602001600020600701600060026000868152602001908152602001600020600601548152602001908152602001600020600082015181600001556020820151816001019080519060200190610d7792919061110a565b5060408201518160020160006101000a81548173ffffffffffffffffffffffffffffffffffffffff021916908373ffffffffffffffffffffffffffffffffffffffff16021790555090505060026000838152602001908152602001600020600601600081548092919060010191905055507f92b51f2659a88400b3a6e4d98a275bb8526762556003abfa030bb8e983cbf17960026000848152602001908152602001600020600601548260026000868152602001908152602001600020600601543360405180858152602001806020018481526020018373ffffffffffffffffffffffffffffffffffffffff1673ffffffffffffffffffffffffffffffffffffffff168152602001828103825285818151815260200191508051906020019080838360005b83811015610eb7578082015181840152602081019050610e9c565b50505050905090810190601f168015610ee45780820380516001836020036101000a031916815260200191505b509550505050505060405180910390a15050565b6002602052806000526040600020600091509050806000015490806001018054600181600116156101000203166002900480601f016020809104026020016040519081016040528092919081815260200182805460018160011615610100020316600290048015610faa5780601f10610f7f57610100808354040283529160200191610faa565b820191906000526020600020905b815481529060010190602001808311610f8d57829003601f168201915b505050505090806002018054600181600116156101000203166002900480601f0160208091040260200160405190810160405280929190818152602001828054600181600116156101000203166002900480156110485780601f1061101d57610100808354040283529160200191611048565b820191906000526020600020905b81548152906001019060200180831161102b57829003601f168201915b5050505050908060030160009054906101000a900473ffffffffffffffffffffffffffffffffffffffff16908060040154908060050154908060060154905087565b828054600181600116156101000203166002900490600052602060002090601f016020900481019282601f106110cb57805160ff19168380011785556110f9565b828001600101855582156110f9579182015b828111156110f85782518255916020019190600101906110dd565b5b509050611106919061118a565b5090565b828054600181600116156101000203166002900490600052602060002090601f016020900481019282601f1061114b57805160ff1916838001178555611179565b82800160010185558215611179579182015b8281111561117857825182559160200191906001019061115d565b5b509050611186919061118a565b5090565b6111ac91905b808211156111a8576000816000905550600101611190565b5090565b9056fea265627a7a72315820b0b710a275c7fc3c3edcdfe1cc35253a74b7d75289c6f7b7ddce483e3098890864736f6c63430005100032",
  "source": "pragma solidity ^0.5.0;\n// import \"./DComment.sol\" as DComment;\n\ncontract DVideo {\n  uint public videoCount = 0;\n  string public name = \"DVideo\";\n  mapping(uint => Video) public videos;\n\n  struct Video {\n    uint id;\n    string hash;\n    string title;\n    address author;\n    uint rateTotal;\n    uint rateNumber;\n    uint commentsCount;\n    mapping(uint => Comment) videoComments;\n  }\n\n  event VideoUploaded(\n    uint id,\n    string hash,\n    string title,\n    uint videoCount,\n    address author,\n    uint rateTotal,\n    uint rateNumber,\n    uint commentsCount\n  );\n\n  event VideoRateUpdated(\n    uint id,\n    string title,\n    uint rateTotal,\n    uint rateNumber\n  );\n\n  struct Comment {\n    uint id;\n    string text;\n    address poster;\n  }\n\n  event CommentPosted(\n    uint id,\n    string text,\n    uint commentsCount,\n    address poster\n  );\n\n  constructor() public {\n  }\n\n  function uploadVideo(string memory _videoHash, string memory _title) public {\n    // Make sure the video hash exists\n    require(bytes(_videoHash).length > 0);\n    // Make sure video title exists\n    require(bytes(_title).length > 0);\n    // Make sure uploader address exists\n    require(msg.sender!=address(0));\n\n    // Add video to the contract\n    videos[videoCount].id = videoCount;\n    videos[videoCount].hash = _videoHash;\n    videos[videoCount].title = _title;\n    videos[videoCount].author = msg.sender;\n    videos[videoCount].rateTotal = 0;\n    videos[videoCount].rateNumber = 0;\n    videos[videoCount].commentsCount = 0;\n\n    // Increment video id\n    videoCount ++;\n\n    // Trigger an event\n    emit VideoUploaded(videoCount, _videoHash, _title, videoCount, msg.sender, 0, 0, 0);\n  }\n\n  function updateRate(uint _id, uint _rateTotal, uint _rateNumber, string memory _title) public {\n    require(_id >= 0);\n    require(_rateTotal >= 0);\n    require(_rateNumber >= 0);\n    // Make sure uploader address exists\n    require(msg.sender!=address(0));\n\n    videos[_id].rateTotal = _rateTotal;\n    videos[_id].rateNumber = _rateNumber;\n    emit VideoRateUpdated(_id, _title, _rateTotal, _rateNumber);\n  }\n\n  function postComment(uint _id, string memory _text) public {\n    require(_id>=0);\n    // Make sure comment content exists\n    require(bytes(_text).length > 0);\n    // Make sure uploader address exists\n    require(msg.sender!=address(0));\n\n    // Add comment to the contract\n    videos[_id].videoComments[videos[_id].commentsCount] = Comment(videos[_id].commentsCount, _text, msg.sender);\n\n    // Increment comment id\n    videos[_id].commentsCount++;\n\n    // Trigger an event\n    emit CommentPosted(videos[_id].commentsCount, _text, videos[_id].commentsCount, msg.sender);\n  }\n\n  function getComment(uint _videoId, uint _commentId) public returns (string memory text, address poster){\n    require(_commentId>=0);\n    return (videos[_videoId].videoComments[_commentId].text, videos[_videoId].videoComments[_commentId].poster);\n  }\n}\n\n  \n",
  "sourcePath": "/Users/lawrence/Desktop/Github/dvideo/src/contracts/DVideo.sol",
  "compiler": {
    "name": "solc",
    "version": "0.5.16+commit.9c3226ce.Emscripten.clang"
  },
  "schemaVersion": "3.3.2",
  "updatedAt": "2020-12-04T22:37:14.895Z",
  "networkType": "ethereum",
  "devdoc": {
    "methods": {}
  },
  "userdoc": {
    "methods": {}
  }
}